:020000040800F2
:1000000050060020A9010008832100085F1E000897
:1000100081210008C1070008852A000800000000AF
:100020000000000000000000000000008721000820
:10003000C30700080000000085210008E52500082E
:10004000C3010008C3010008C3010008C301000880
:10005000C3010008C3010008C3010008C301000870
:10006000C3010008C3010008C3010008C301000860
:10007000C3010008C3010008C3010008C301000850
:10008000C3010008C3010008C3010008000000000C
:10009000000000000000000000000000C301000894
:1000A00089260008C301000895260008C30100083E
:1000B000A1260008AD260008C3010008C3010008FE
:1000C000C3010008C3010008C3010008C301000800
:1000D000C3010008792A0008C301000800000000DD
:1000E000C3010008C3010008C301000800000000AC
:1000F000000000000000000000000000C301000834
:1001000000000000C3010008B9260008C301000870
:1001100000000000000000000000000000000000DF
:10012000C3010008C3010008C3010008C30100089F
:10013000C3010008000000000000000000000000F3
:10014000000000000000000000000000C3010008E3
:10015000C3010008C3010008C3010008C30100086F
:10016000C3010008C30100080000000000000000F7
:10017000000000000000000000000000000000007F
:1001800000000000C30100080000000000000000A3
:10019000C3010008DFF80CD000F000FB0048004766
:1001A000BD33000850060020064880470648004737
:1001B000FEE7FEE7FEE7FEE7FEE7FEE7FEE7FEE717
:1001C000FEE7FEE76D260008950100082DE9F05FC7
:1001D0000546002092469B468846064681464024B6
:1001E0001BE0284641464746224600F040FA534667
:1001F0005A46C01A914110D311461846224600F0C3
:1002000027FA2D1A67EB01084F46224601200021EC
:1002100000F01EFA17EB00094E41201EA4F1010464
:10022000DFDC484631462A464346BDE8F09FD2B25D
:1002300001E000F8012B491EFBD270470022F6E7CF
:1002400010B513460A4604461946FFF7F0FF20464C
:1002500010BD2DE9FE4F804681EA0300C00F0C4619
:10026000009021F0004123F00045B8EB0200A941C5
:1002700005D24046214690461C460B46024623F0D6
:100280000040104347D0270DC7F30A00C3F30A51BB
:100290000290401A019040286BDAC3F3130040F437
:1002A000801B0098924620B10023D2EB030A63EB37
:1002B0000B0B01985946C0F14002504600F0C8F9B6
:1002C00006460D4650465946019A00F0E0F910EBFB
:1002D00008006141002487EA115284EAE7731A4357
:1002E00040D0009A62B3019A012A4FEA075215DC06
:1002F000001B61EB02014FF0004202EA0752CDE918
:100300000042001C41F5801132462B4600F0E0F916
:1003100003B0BDE8F08F40462146F9E7001B61EBD2
:100320000201001C41F5801300185B412018A2F562
:10033000001747EB030140EAD570B6196D4111E093
:100340006D084FEA360645EAC0754FEA0752001BB2
:1003500061EB0201001C41F5801149084FEA3000B1
:100360000019514132462B4603B0BDE8F04F00F072
:10037000A0B90098012240000023D0EB020263EBF9
:10038000E073009821464FEAE074B8EB000061EB9F
:100390000401E9E783F000435BE781F0004158E79F
:1003A0002DE9FE4F81EA030404F0004421F00041EE
:1003B00000944FF0000B23F0004350EA01045ED09C
:1003C00052EA03045BD0C3F30A54C1F30A552C4428
:1003D000A4F2F3340194A0FB0254C1F3130141F4DD
:1003E0008011C3F3130343F4801301FB024400FBA9
:1003F000034E840A970A44EA815447EA8357A4FBD0
:10040000076802958D0A05FB07854FEA932C04FBCC
:100410000C542705029D4FEA065847EA1637B5EBFC
:1004200008056EEB070C870E920E47EA811742EA29
:100430008312A7FB0201B6EB0B0164EB00042B0D4A
:1004400043EA0C335E1844EB1C50DA465146E7FB96
:100450000201C5F313044FEA0B3343EA14534FEA86
:100460000432019C43EA0603A4F10C040294009CAC
:10047000CDE900B400F02CF903B0BDE8F08F002006
:100480000146F9E72DE9F04D81EA030404F0004B41
:1004900021F0004514464FF0000A23F0004150EAD5
:1004A000050220D054EA01021DD0C5F30A570246C6
:1004B000C5F31303C1F31300C1F30A5640F48015CA
:1004C00043F48013A7EB0608101BD64608F2FD384C
:1004D00073EB050002D308F1010801E092185B41BB
:1004E000B8F1000F03DA00200146BDE8F08D0020CE
:1004F0004FF48011064684460EE0171B73EB050788
:1005000005D3121B63EB050306434CEA010C4908B3
:100510004FEA300092185B4150EA0107EDD152EAF0
:10052000030012D082EA040083EA0501084305D0E3
:10053000101BAB4106D20122002306E000224FF03F
:10054000004302E06FF0010253101AEB06004CEB7F
:10055000085110EB0A0041EB0B01BDE8F04D00F033
:10056000A8B80EB5C10F80EAE0700844CA070021A0
:1005700040F233438DE80E000A460B4600F0A8F81F
:1005800003B000BD70B5C1F30A5201F0004500246C
:10059000C1F3130140F2FF3341F480119A4201DAB2
:1005A000002070BD40F233439A42A2F2334203DC92
:1005B000524200F05CF800E090402C43F1D0404201
:1005C00070BD000030B5041E71F1000404DB4FF073
:1005D0000044404264EB0101141E73F1000405DB8A
:1005E0001C464FF00043524263EB04038B4208BFAA
:1005F000824230BD30B5041E71F1000404DB4FF0BF
:100600000044404264EB0101141E73F1000405DB59
:100610001C464FF00043524263EB0403994208BF6B
:10062000904230BD30B50B46014600202022012407
:1006300009E021FA02F59D4205D303FA02F5491BB0
:1006400004FA02F52844151EA2F10102F1DC30BDC6
:10065000202A04DB203A00FA02F100207047914082
:10066000C2F1200320FA03F3194390407047202A77
:1006700004DB203A21FA02F00021704721FA02F34C
:10068000D040C2F120029140084319467047202A09
:1006900006DBCB17203A41FA02F043EAE07306E0AA
:1006A00041FA02F3D040C2F12002914008431946BA
:1006B000704710B5141E73F1000408DA401C41F1B4
:1006C000000192185B411A4301D120F0010010BDD6
:1006D0002DE9F04D92469B4611B1B1FA81F202E04C
:1006E000B0FA80F220329046FFF7B2FF04460F4680
:1006F00040EA0A0041EA0B0153465A46084313D028
:10070000114653EA010019D0C8F140025046FFF7E4
:10071000AEFF05460E46504659464246FFF798FF43
:10072000084305D0012004E020463946BDE8F08D9D
:100730000020054346EAE0762C4337430A986305D8
:10074000E40AA0EB08000022FD0A44EA47540A30FC
:1007500002D500200146E9E7010510196941DDE9EC
:10076000084500196941BDE8F04DA2E7C1F30A52FE
:10077000C1F3130140F2FF3341F480119A4202DACF
:1007800000200146704740F233439A42A2F23342BE
:1007900002DC5242FFF76BBFFFF75ABF064C074D12
:1007A00006E0E06840F0010394E807009847103441
:1007B000AC42F6D3FFF7F2FC44350008643500087C
:1007C000FEE770472DE9F041214D4FF4805600229D
:1007D0003146284600F016FB1E4C00206060E062A7
:1007E00004E001223146284600F00CFBE06A616813
:1007F000801C8142F5DD00223146284600F002FBD4
:1008000060684FF4005741F28836E06205E03946EF
:10081000284600F0EBFA012805D0E16A606831440F
:100820008842F4DD07E06168E16204E03946284669
:1008300000F0DCFA38B1E16A606831448842F5DDE5
:10084000606BBDE8F081E16A6068401A6063F8E7B8
:10085000000402400000002070B51F4D00228021DE
:10086000284600F0CFFA1D4C00206060E06204E0F2
:1008700001228021284600F0C5FAE06A6168801CE8
:100880008142F5DD00228021284600F0BBFA606835
:1008900041F28836E06205E04021284600F0A6FAE1
:1008A000012805D0E16A606831448842F4DD07E040
:1008B0006168E16204E04021284600F097FA30B117
:1008C000E16A606831448842F5DD206B70BDE16A01
:1008D0006068401A206370BD0000024000000020E4
:1008E0002DE9F843704F062400221021384600F00D
:1008F00089FA3D1500222946384600F083FA4FF464
:10090000FA761021384600F076FA2946384600F08B
:1009100072FA304600F08EF9641EF2D163A16CA029
:1009200002F0B2F814263C462946204600F063FA4D
:10093000FA2000F07FF9761EF6D1FFF743FFFFF7AC
:1009400010FE644F0122C7E900012946204600F04D
:1009500059FA4FF4FA69484600F06CF9002229462A
:10096000204600F04FFA4FF47A78404600F062F9E2
:1009700059A0009097ED000B5FA153EC102B67A0DE
:1009800002F082F814262946204600F034FAFA20B4
:1009900000F050F9761EF6D1FFF714FFFFF7E1FDE6
:1009A00041EC100B60A087ED020B009053EC102B74
:1009B0005EA166A002F068F806262946204600F0EF
:1009C0001AFA404600F036F9761EF6D1404600F09D
:1009D00031F961A13EA002F057F8142610212046FB
:1009E00000F009FAFA2000F025F9761EF6D1FFF79B
:1009F00033FFFFF7B6FDC7E90401012210212046AD
:100A000000F000FA484600F015F9002210212046B7
:100A100000F0F8F9404600F00DF957A0009097ED6E
:100A2000040B5CA153EC102B3CA002F02DF8142613
:100A30001021204600F0DFF9FA2000F0FBF8761EC6
:100A4000F6D1FFF709FFFFF78CFD41EC100B36A044
:100A500087ED060B009053EC102B56A13BA002F043
:100A600013F8062647461021204600F0C4F9384600
:100A700000F0E0F8761EF6D1384600F0DBF854A11D
:100A800013A002F001F806261021204600F0B3F969
:100A90002946204600F0AFF9384600F0CBF8761E24
:100AA000F2D1BDE8F88300000000024050656465A3
:100AB00073747261696E2053746172746C696E65CF
:100AC00020446574656374696E673A000000000035
:100AD00025730A00B000002050656465737472616C
:100AE000696E20456E646C696E652044657465634B
:100AF00074696E673A0000005065646573747261D2
:100B0000696E2053746172746C696E6520446574FB
:100B100065637465642C2000000000002573256C5B
:100B2000660A25730A0000002E0000005065646507
:100B300073747261696E20456E646C696E652044E1
:100B4000657465637465642C200000002573256C52
:100B50006625730A0000000056656869636C6520AD
:100B600053746172746C696E652044657465637456
:100B7000696E673A0000000056656869636C65201D
:100B8000456E646C696E6520446574656374696E56
:100B9000673A000056656869636C6520537461723A
:100BA000746C696E652044657465637465642C209B
:100BB0000000000056656869636C6520456E646CD2
:100BC000696E652044657465637465642C2000005B
:100BD000456E7669726F6E6D656E742044657465DE
:100BE0006374696F6E20436F6D706C657465642EFD
:100BF0000A20466F726D616C20576F726B696E6769
:100C0000205374617274732100000000704790F8E3
:100C10003510022903D0802141650120704705214C
:100C200080F835100068016821F0010101600020A2
:100C30007047000070B5044600F0EAF80546601CF5
:100C400002D004480078044400F0E2F8401BA042BF
:100C5000FAD370BD780000202DE9F84F00224FF044
:100C6000010803254FF00F0E0B6808FA02F4234029
:100C7000A34271D14E68012E05D0022E03D0112E51
:100C800001D0122E15D18668570005FA07FC26EA16
:100C90000C06D1F80CC00CFA07FC4CEA060CC0F8A4
:100CA00008C04668A6430C79C4F30014944034434A
:100CB0004460C668570005FA07FC8C6826EA0C06F3
:100CC000BC403443C4604C68022C01D0122C13D1B8
:100CD000D40800EB8404A346D4F8209054074FEACC
:100CE000D46A0EFA0AF629EA06090E6906FA0AF625
:100CF00046EA0906CBF8206004680E7924EA0C0461
:100D000006F00306BE40264306604C68E40056D554
:100D10002E4C266846F480462660246822F003069E
:100D200004F4804400942A4C3444A446D4F808487F
:100D30009607370F0EFA07F6B443264EB04201D19C
:100D4000002615E0244EB04201D1012610E0234ECA
:100D5000B04202D102260BE031E0214EB04201D177
:100D6000032605E01F4EB04201D1042600E007260D
:100D7000BE402643CCF808681B4E34684F689C433D
:100D8000FF0300D51C433460174E361D34684F688E
:100D90009C43BF0300D51C433460134E08363468AF
:100DA0004F689C43FF0200D51C4334600E4E0C3646
:100DB00034684F689C43BF0200D51C433460521C0A
:100DC000102AFFF451AFBDE8F88F0000443802400C
:100DD00000300140000002400004024000080240D0
:100DE000000C024000100240003C01400069084035
:100DF00000D001207047426931EA020200D10904A3
:100E0000816170470AB1816170470904FBE7000006
:100E1000014880687047000078000020024881681F
:100E20000278114481607047780000200B4810B5AB
:100E3000016841F400710160016841F48061016062
:100E4000016841F480710160032000F06FF8002018
:100E500000F006F800F024F8002010BD003C02402D
:100E600070B50D4D04464FF47A712878B1FBF0F05F
:100E70000A490968B1FBF0F000F004FB48B9102CF6
:100E800007D200222146501E00F030F800206C608E
:100E900070BD012070BD000078000020840000209B
:100EA0000A4808B5016841F480410160006800F417
:100EB000804000900548001F016841F080510160AA
:100EC000006800F08050009008BD000044380240E7
:100ED000002809DB00F01F02012191404009800039
:100EE00000F1E020C0F8001170470000F0B40E4B94
:100EF0001B680C46C3F30223C3F10705042D00D978
:100F00000425191D072901D2002300E0DB1E01265C
:100F100006FA05F1491E214099409E40761E164072
:100F20003143F0BC01F0C0BD0CED00E0064900F01B
:100F3000070208684FF6FF03184040EA0220034A00
:100F400010430860704700000CED00E00000FA0557
:100F50002DE9F0470E46050065D0DFF81481D8F87A
:100F60000000F7B200F00F00B04207D288F800701E
:100F7000D8F8000000F00F00B04254D128683D4C72
:100F8000810712D5400703D5206840F4E050206067
:100F90002878000703D5206840F46040206020686E
:100FA000A96820F0F000084320602878C0072DD001
:100FB000304968680839012812D0022813D0032864
:100FC00011D00968890700292DDA216821F0030171
:100FD00001432160FFF71CFF814641F2883A0EE091
:100FE00009688903EFE709688901ECE7FFF710FF5B
:100FF000A0EB0901514502D90320BDE8F087206824
:10100000696800F00C00B0EB810FEFD1D8F8001048
:10101000404601F00F01B14207D90770006800F0A7
:101020000F00B04201D00120E7E72878400705D53E
:101030002068E96820F4E050084320602878000721
:1010400006D52068296920F4604040EAC10020608C
:1010500000F038F82168084AC1F30311515CC84018
:101060000649086006480068FFF7FAFE0020C4E75A
:10107000003C0240083802402C3500088400002063
:101080007C0000200448054900680968044AC1F34F
:101090008221515CC840704784000020083802401B
:1010A0003C3500080448054900680968044AC1F352
:1010B0004231515CC840704784000020083802402B
:1010C0003C350008154810B5006810F00C021448B3
:1010D00013D01449042A0FD0082A0ED10F4C241F14
:1010E0002268236802F03F025B0207D52068C0F344
:1010F0008810A0FB010106E0084610BD2168C1F37D
:101100008811A1FB00010023FFF760F82168C1F3FB
:101110000141491C4900B0FBF1F010BD0838024004
:101120000024F40040787D012DE9F84F040076D0CA
:101130002078DFF838A3CE4DC00749D0DAF8001088
:101140005046C1F38101012908D00068C0F3810035
:1011500002280AD1281D0068400206D528688003AD
:1011600036D560680028E2D032E06068B0F5803F94
:1011700010D0B0F5A02F286810D020F4803028605F
:10118000286820F4802028606068A0B1FFF740FE46
:1011900006460CE0286840F48030F4E740F48020F4
:1011A0002860F7E7FFF734FE801B642873D82868AF
:1011B0008003F7D50CE0FFF72BFE064605E000BFE5
:1011C000FFF726FE801B6428F0D828688003F7D438
:1011D0002078DFF8A08280074FF000093ED5DAF8CA
:1011E0000010504611F00C0F09D00068C0F38100C8
:1011F00002280BD19D48001F0068400206D42868D1
:10120000800715D5E068012809D111E0E068B8B180
:101210000120C8F80000FFF7FBFD064605E020E1CD
:10122000FFF7F6FD801B0228C0D828688007F7D595
:101230002868216920F0F80040EAC10028600DE02C
:10124000C8F80090FFF7E4FD064604E0FFF7E0FD74
:10125000801B02281FD828688007F7D42078000751
:1012600022D5824E844861696C3671B101210160DA
:10127000FFF7CEFD074604E0FFF7CAFDC01B0228BA
:1012800009D830688007F7D50EE0C0F80090FFF766
:10129000BFFD074605E082E0FFF7BAFDC01B02284C
:1012A0007DD830688007F7D42078400768D5DFF80C
:1012B000BCB100270BF1380BDBF80000C0000BD4E9
:1012C000DBF8001041F08051CBF80010DBF8000093
:1012D000012700F080500090684E3068C00510D49F
:1012E000306840F480703060FFF792FD009005E0B8
:1012F000FFF78EFD0099401A022850D83068C005CB
:10130000F6D55A4EA068683601280FD005283068F7
:1013100010D020F001003060306820F00400306010
:10132000A068B8B1FFF774FD00900FE0306840F09E
:101330000100F4E740F004003060F7E7FFF768FDD4
:101340000099411A41F28830814266D8306880079E
:10135000F4D50EE0FFF75CFD009007E0FFF758FDC5
:101360000099411A41F28830814256D8306880078E
:10137000F4D42FB1DBF8001021F08051CBF800102D
:10138000A069D0B3DAF800205146C2F38102022AE4
:101390004AD00228484607D0C8F8600000E03CE088
:1013A000FFF736FD04463BE04746C8F86000FFF70C
:1013B0002FFD064605E000BFFFF72AFD801B02282F
:1013C0002BD828688001F7D4D4E907010843A16A23
:1013D0002B4A490802EB0141626A41EA8211084343
:1013E00094F82C1040EA01612048001F01600120A0
:1013F0003866FFF70DFD044605E034E0FFF708FD11
:10140000001B022809D828688001F7D52BE000BF0F
:10141000FFF7FEFC001B022802D90320BDE8F88F6D
:1014200028688001F4D41EE00128F7D00868E2693A
:1014300000F48001914214D1226A00F03F019142F0
:101440000FD147F6C071626A0140914209D1A26A88
:1014500000F44031914204D1E16A00F070608842AA
:1014600001D00120DAE70020D8E700000838024068
:101470000038024000004742800E474200700040A2
:101480000000FFFF10B5401EB0F1807F01D30120A6
:1014900010BD4FF0E02460610F21601701F004FBE4
:1014A0000020A06107202061002010BD7047704718
:1014B00070B590F83C20012A2CD0012480F83C40E3
:1014C000022280F83D2003685A689D6822F0700669
:1014D0000A6832435A60104B02689A420ED0B2F149
:1014E000804F0BD00D4B9A4208D00D4B9A4205D03D
:1014F0000C4B9A4202D00C4B9A4204D1496825F019
:1015000080031943916080F83D40002180F83C1031
:10151000084670BD022070BD00000140000400407C
:1015200000080040000C00400040014010B50400DD
:1015300003D094F83D0010B107E0012010BD002059
:1015400084F83C00204600F00DF8022084F83D00AD
:10155000211D206801F0B6F8012084F83D0000202C
:1015600010BD000008B501683048B1F1804F11D0BE
:101570002F4A91421DD1016841F0020101600068CB
:10158000002200F00200009002211D20FFF7AEFCB7
:101590001D2045E0016841F0010101600068002262
:1015A00000F00100009001211C20FFF79FFC1C208F
:1015B00036E0204A91420ED1016841F008010160F5
:1015C0000068002200F00800009004213220FFF79C
:1015D0008DFC322024E01548174A001D91420ED19F
:1015E000016841F4803101600068002200F480301D
:1015F000009011461820FFF779FC182010E00F4AE0
:10160000914211D1016841F48021016000680022FB
:1016100000F48020009011461A20FFF767FC1A2082
:10162000BDE80840FFF754BC08BD00004038024048
:1016300000040040000C0040004001400048014010
:101640000168CA6842F00102CA600068816801F05E
:101650000701062903D0016841F001010160002063
:101660007047022180F83D1001680A6A41F21113A7
:101670001A4207D10A6A9B101A4203D10A6822F063
:1016800001020A60012180F83D100020704770B50A
:10169000044690F83C00012817D0012584F83C50FE
:1016A000022084F83D002068826822F0770222F44C
:1016B0007F4282600868502830D00DDC20284DD051
:1016C00005DC98B310283BD148E0022070BD3028DB
:1016D00044D0402834D139E0602828D0702806D082
:1016E000B0F5805F2CD0B0F5005F29D10AE0CB685F
:1016F000D1E90121206801F031F82068816841F0CA
:10170000770109E0CB68D1E90121206801F026F8D2
:101710002068816841F48041816011E0CA684968AD
:10172000206801F02DF85021206807E016E0CA6813
:101730004968206801F035F86021206801F018F848
:1017400084F83D50002084F83C0070BDCA684968A8
:10175000206801F015F840212068EFE72268014673
:101760001046EBE7704770B50446006801694FF01A
:101770000005C943890715D4C168C943890711D435
:10178000E91E0161012020772068806980072046DA
:1017900002D0FFF7E7FF04E000F098F8204600F0E1
:1017A00096F8257720680169C943490717D4C168AD
:1017B000C943490713D46FF0040101610220207767
:1017C0002068806910F4407F204602D0FFF7CAFFEE
:1017D00004E000F07BF8204600F079F825772068D7
:1017E0000169C943090716D4C168C943090712D45E
:1017F0006FF008010161042020772068C06980072C
:10180000204602D0FFF7AEFF04E000F05FF820466C
:1018100000F05DF8257720680169C943C90617D42F
:10182000C168C943C90613D46FF0100101610820D3
:1018300020772068C06910F4407F204602D0FFF76F
:1018400091FF04E000F042F8204600F040F82577D0
:1018500020680169C943C90708D1C168C943C907DC
:1018600004D1891E0161204600F032F82068016928
:10187000C943090609D4C168C943090605D46FF0F4
:10188000800101612046FFF711FE20680169C9430C
:10189000490609D4C168C943490605D46FF040011F
:1018A0000161204600F082F920680169C943890678
:1018B0000BD4C168C943890607D46FF020010161C8
:1018C0002046BDE87040FFF7F2BD70BD704770471D
:1018D0002DE9F04706462DED048B0068A14CB0F1D0
:1018E000804F02D16068401C60609F499FED9F8BD4
:1018F000DFF870923068DFF87C82002509F1440936
:101900004FF4806A88425AD1A169A76859F821002A
:10191000E91F01EB4001B9421ADAB7EB400F4EDB89
:1019200094ED140B53EC182B51EC100BFEF738FD13
:101930009FED911B53EC112BFEF72CFD41EC190B85
:101940003846FEF70EFE53EC192BFEF73BFE36D859
:101950002169E069084309D16069062806DC51461F
:101960004046FFF748FA6069401C6061E069012861
:101970000CD12069012809D1606906280ADC1021F0
:101980004046FFF738FA6069401C606160690628CC
:1019900000DAA0B90220C4E90405E06920B90122F7
:1019A00051464046FFF72EFAE069012804D1012292
:1019B00010214046FFF726FA7148FFF752FE7149A1
:1019C000306888427AD1A0686FF00502401CA060A0
:1019D000A1694F4659F8211002EB410282420CDC0A
:1019E000E26B062A09DCB0EB410F06DC51464046AB
:1019F000FFF701FAE06B401CE06394ED140B53EC2D
:101A0000182B51EC100BFEF7CBFC9FED5F1B53EC3A
:101A1000112BFEF7BFFC41EC190BA068FEF7A1FDEE
:101A200053EC192BFEF7E6FD0CD8A068782809DCEA
:101A3000E06B062806DC10214046FFF7DCF9E06B7E
:101A4000401CE063A06957F82010A068B0EB410F7C
:101A50000FDB012707EB410181420ADB00225146DF
:101A60004046FFF7CFF9012210214046FFF7CAF99F
:101A7000E76194ED140B53EC182B51EC100BFEF7AF
:101A80008FFC41EC180BA068FEF76BFD53EC182B94
:101A9000FEF7B0FD0ED80022102147464046FFF762
:101AA000B1F9012251463846FFF7ACF93848E561F3
:101AB000FFF7D7FDE06B062800DBE56335493068AA
:101AC00088420DD1E068401C00EBD07121F001018B
:101AD000411AA163E0603C2802DB2F48FFF7C1FDFB
:101AE0002E493068884238D12068A560401CC4E97E
:101AF0000005E56028482562FFF7A2FD2048FFF7B2
:101B00009FFD9FED271B284B00200021B0EE410ACE
:101B1000F0EE610A03EB001202EBC106491C86EDF0
:101B2000000B0129F8DD401C0128EEDD1848FFF705
:101B300087FD0122514646464046FFF763F90022E1
:101B400010213046FFF75EF9E561A069401C00EB0B
:101B5000D07121F00101401AA061BDEC048BBDE8F9
:101B6000F087000000000020004801400000000055
:101B70000000004000000240000000000000F03FB4
:101B8000D00100200040014000000000000018408B
:101B9000900100200004004010010020000C0040D3
:101BA0000000000000000000900000207047704717
:101BB00070B5026804461068D168536910F00F0FC1
:101BC00052D003F0010501F490762E435FD0C20796
:101BD00005D0CA0503D5E26B42F00102E263420779
:101BE00005D5DA0703D0E26B42F00202E263820716
:101BF00005D5DA0703D0E26B42F00402E263020784
:101C000007D501F020022A4303D0E26B42F008021C
:101C1000E263E26B002A33D0800604D5880602D541
:101C2000204600F0E6FD20684069E16BC0F38010BB
:101C3000090700D428B3204600F0CDFD2068416993
:101C400049061AD5416921F040014161606BA0B19C
:101C50001B490165606BFEF7DAFF002810D0606B4E
:101C6000016DBDE870400847830610D58B060ED580
:101C70002046BDE8704000F0BCBD2046FFF797FF4E
:101C800070BD2046FFF793FF0020E06370BD0306A0
:101C900006D50B0604D52046BDE8704000F088BE8E
:101CA0004006F3D54806F1D5D168204621F0400121
:101CB000D160202184F8391000F0D0F870BD000008
:101CC000C727000870B5040004D094F83900002537
:101CD00010B106E0012070BD84F83850204600F0B5
:101CE00023F8242084F839002068C16821F40051C9
:101CF000C160204600F0C8FD2068016921F49041D0
:101D000001612068416921F02A0141612068C168B0
:101D100041F40051C160E563202084F8390084F863
:101D20003A00002070BD000010B586B004461421B2
:101D30006846FEF783FA17492068884228D116487A
:101D4000016841F010010160006800F0100005908A
:101D500011481438016841F00201016000686946C9
:101D600000F002000590C0200090022001900120A8
:101D7000029003200390072004900848FEF76CFFB0
:101D8000002205212520FFF7B1F82520FFF7A0F854
:101D900006B010BD0010014044380240000402406B
:101DA00070472DE9F843044690F839001F4616465F
:101DB0000D46202850D1B5B1AEB194F838000128B5
:101DC0004AD0012084F838004FF00008C4F83C8065
:101DD000212084F83900FFF71BF8A6848146E684A9
:101DE00084F8388026E00120BDE8F883E08C401EAE
:101DF000E084A0684B46B0F5805F4FF000024FF0E2
:101E000080012046009703D000F003FEE8B90DE002
:101E100000F0FFFDC8B928882168C0F308004860B9
:101E2000206908B16D1C05E0AD1C03E0216815F8C0
:101E3000010B4860E08C0028D8D14B46002240219D
:101E40002046009700F0E5FD08B10320CCE72020F4
:101E500084F839000020C7E70220C5E77047FEE795
:101E60002DE9F04387B014216846FEF7E7F94248B0
:101E70000024016841F004010160016801F00401DF
:101E80000591016841F080010160016801F0800165
:101E90000591016841F001010160016801F0010153
:101EA0000591016841F0020101600068DFF8CC8013
:101EB00000F00200059000224FF492614046FEF7C8
:101EC000A1FFDFF8BC9000224FF488514846FEF78E
:101ED00099FF4FF460400326CDE90006694602945D
:101EE0002848FEF7B9FE49F62F30CDE900066946CD
:101EF00002944046FEF7B0FE902000900125CDE907
:101F00000154694640460394FEF7A6FE402002278E
:101F10008DE8910069464046FEF79EFE4CF21F6038
:101F2000CDE90006694602944846FEF795FE28036F
:101F30000090CDE90154694648460394FEF78CFEB3
:101F400042F220008DE8910069464846FEF784FE83
:101F5000A80203948DE8A10069464046FEF77CFE86
:101F60002802CDE90005CDE9025469464846FEF74E
:101F700073FE07B0BDE8F083303802400000024035
:101F800000040240000802400C4810B50A490160F4
:101F900040F21F314160002142F20F72C0E902128B
:101FA00001618161FFF7C2FA002803D0BDE810404B
:101FB000FEF72CBE10BD000000480140D0010020FB
:101FC00010B586B00024164800940194029403943E
:101FD00004944FF08041059401604F21C0E9011441
:101FE0000321C0E903148461FFF7A0FA08B1FEF7EA
:101FF0000DFE4FF48050009069460948FFF747FBFB
:1020000008B1FEF703FE049404A905480594FFF700
:102010004FFA002801D0FEF7F9FD06B010BD000010
:10202000D000002010B586B0002417480094019419
:1020300002940394049413490594016040F67F418F
:10204000C0E9011442F20F71C0E903148461FFF783
:102050006DFA08B1FEF7DAFD4FF480500090694642
:102060000948FFF714FB08B1FEF7D0FD049404A95A
:1020700005480594FFF71CFA002801D0FEF7C6FDBD
:1020800006B010BD000400401001002010B586B05D
:102090000024174800940194029403940494134973
:1020A0000594016040F27F71C0E901141149C0E953
:1020B00003148461FFF73AFA08B1FEF7A7FD4FF465
:1020C0008050009069460A48FFF7E1FA08B1FEF730
:1020D0009DFD049404A906480594FFF7E9F900283A
:1020E00001D0FEF793FD06B010BD0000000C0040CB
:1020F000500100203F420F001FB500211148009100
:10210000019102910E4A0391026040F23F62C0E9E0
:10211000012142F20F72C0E903218161FFF706FA43
:1021200008B1FEF773FD4FF48050009069460548F2
:10213000FFF7ADFA002801D0FEF768FD1FBD0000D3
:1021400000400140900100200C4810B50A49016090
:102150004FF416514160002181600C22C160C0E93A
:1021600004128161C161FFF7ADFD002803D0BDE815
:102170001040FEF74BBD10BD0010014010020020C2
:10218000FEE77047704770472DE9F0432DED0E8B49
:1021900089B0FEF717FBFEF7E4F9DC4CDA4EA26BD0
:1021A00006EBC202C2E90001FEF756FBFEF7D9F9C1
:1021B00041EC190BA06B06F1200506EBC00787ED7B
:1021C000049B95ED020B95ED008B53EC102B51EC1D
:1021D000180BFEF7DFF897ED000B41EC1A0B53ECF0
:1021E000102B51EC180BFEF7D5F853EC1A2BFEF719
:1021F00049F941EC180B84ED168B95ED060B95ED26
:1022000004AB53EC102B51EC1A0BFEF7C3F841EC66
:102210001B0B53EC192B51EC1A0BFEF7BBF853ECCC
:102220001B2BFEF72FF941EC100B51EC180B84ED32
:10223000180B53EC102BFEF70CF841EC100B51EC83
:10224000180B53EC102BFEF71DF941EC180B84ED25
:102250001A8B9FEDAFAB94ED140B53EC1A2B51EC92
:10226000100BFEF79DF853EC182B41EC1D0B9FED66
:10227000AA9B51EC190BFEF78DF80F4647EC100B9B
:10228000054653EC102B51EC190BFEF7FBF841EC13
:102290001B0B53EC182B51EC190BFEF7F3F8894686
:1022A00049EC100B804653EC1B2B51EC100BFDF747
:1022B000D0FF47EC105B41EC1C0B53EC102B51ECA6
:1022C000190BFEF7DFF841EC110B49EC108B53ECC6
:1022D000112B51EC100BFDF7BCFF47EC105B41ECF0
:1022E0001B0B53EC102B51EC100BFEF759F841EC83
:1022F0001E0B53EC182B51EC180BFEF751F853EC56
:102300001E2BFDF7A6FF53EC1B2BFEF749F853ECF1
:102310001C2BFEF745F841EC100B53EC102B9FEDF6
:10232000800B51EC100BFEF7ADF853EC192BFEF7B8
:1023300034F841EC190B53EC1A2B51EC180BFEF747
:1023400029F841EC100B01F0CDF8FEF70AF941EC49
:10235000180B9FED750B53EC102B94ED140B51ECF7
:10236000100BFEF71DF853EC182BFEF719F853EC81
:10237000192BFEF715F853EC1D2BFDF76AFF41EC06
:10238000180B84ED1C8BFEF7FDF8A062FEF7E9F850
:1023900053EC182BFEF701F853EC1A2BFDF7FAFF5C
:1023A00041EC100B01F09EF80028A06A00DB401CF5
:1023B00060620F2801DC0F2002E02D2801DB2D20B8
:1023C00060620246A069514D0146401C00EBD0738B
:1023D00023F00103C01A443545F820202068012865
:1023E00004DC05EB81011E2048600DE0E06928B99E
:1023F0004FA000F049FB2068012805DDE0690128B5
:1024000002D14FA000F040FBA06953A30146401C3D
:1024100000EBD07222F00102801A55F8211055F815
:1024200020004AA2CDE90620CDE9043194ED180B35
:102430004BA08DED020B009094ED160B4AA153ECCE
:10244000102B4BA000F020FB9FED4F8BE069012883
:1024500026D1A56B53EC182B06EBC50090ED000BB5
:1024600051EC100BFDF796FF41EC100B6D1C05EBCA
:10247000D57020F00100281A06EBC00090ED001B7B
:1024800051EC100B53EC112BFEF7B4F808D80120D7
:1024900020613FA148A000F0F7FA4848FFF7D0F8C4
:1024A000E06900282BD1A56B53EC182B06EBC50077
:1024B00090ED040B51EC100BFDF76CFF41EC100B91
:1024C0006D1C05EBD57020F00100281A06EBC0004A
:1024D00090ED041B51EC100B53EC112BFEF78AF816
:1024E0000DD80020206136A133A000F0CDFA09B04C
:1024F0003248BDEC0E8BBDE8F043FFF7A1B809B040
:10250000BDEC0E8BBDE8F0839000002000000020A1
:10251000000000000000E03F000000000000F03F6D
:102520000000000000002040000000000000D03F3C
:102530004E6F773A20477265656E2E0A00000000E4
:102540004E6F773A205265642E0A00004E78744729
:10255000543A2000000000004E6F7747543A2000A4
:102560002C20563D0000000052743A20503D0000DF
:102570002573256C662573256C660A257325640A08
:10258000257325640A00000000000000000044409C
:102590005761726E696E673A205065646573747234
:1025A00061696E2072756E6E696E67205265646C2B
:1025B000696768742100000025730A00D0010020BB
:1025C0005761726E696E673A2056656869636C651B
:1025D0002072756E6E696E67205265646C696768FB
:1025E00074210000FEF71ABC70B592B03021684625
:1025F000FDF724FE14210CA8FDF720FE1948002544
:10260000016841F080510160006800F08050119035
:102610001548016821F4404141F40041016000681F
:10262000022400F440401190012000900004019029
:102630008001CDE9064019208026CDE90806042056
:10264000CDE90A406846FEF76FFD0F20CDE90C0486
:10265000CDE90E65012110950CA8FEF779FC12B0AA
:1026600070BD00004038024000700040054801681D
:1026700041F47001016003494FF000608039086047
:102680007047000088ED00E00148FFF76CB80000DB
:10269000900100200148FFF766B80000D00100203B
:1026A0000148FFF760B80000D00000200148FFF7A4
:1026B0005AB80000100100200148FFF754B800008C
:1026C00050010020F0B502681D4B1E4C9F031E4DAB
:1026D0001E4E984207D0B84205D0A04203D0A8426F
:1026E00001D0B04204D122F0700C4A6842EA0C02D8
:1026F000984210D0B8420ED0A0420CD0A8420AD0C6
:10270000B04208D0124CA04205D0124CA04202D0D8
:10271000114CA04203D122F44074CA6822434C6990
:1027200022F08002224302608A68C2620A688262E2
:10273000984201D10969016301214161F0BD0000A6
:10274000000001400004004000080040000C004070
:1027500000400140004401400048014010B5846839
:1027600042EA032224F47F440A432243826010BDDC
:10277000826822F070020A4342F0070181607047CC
:1027800010B5036A046A24F001040462846924F029
:10279000F00444EA021423F00A020A43846102624C
:1027A00010BD10B5036A23F0100303628369046A45
:1027B00023F4704343EA023224F0A00343EA0111F8
:1027C0008261016210BD10B5806B0021C185C1849A
:1027D000FFF7EDF910BD0168CA6822F49072CA6073
:1027E00001684A6922F001024A61202180F83A100A
:1027F000704710B590F83A10222901D0022010BD80
:102800008168B1F5805F11D00169002901681FD08E
:10281000496801F07F03816A4A1C82620B70C18D96
:10282000491E0904090CC18518D02BE00269816A90
:10283000002A0268526805D0D2B20A80816A491C17
:102840008162ECE7C2F308020A80816A891CF7E71B
:102850004A68816A4B1C83620A70E0E70168CA68B3
:1028600022F02002CA600168CA6822F48072CA603D
:1028700001684A6922F001024A61202180F83A1079
:10288000FFF78EFA002010BD2DE9F04104460068E4
:102890000169E26821F44051114301612169A06896
:1028A000E26908436169114308432168CA6849F233
:1028B0000C639A430243CA6020684169A26921F40B
:1028C000407111434161E069192764253226B0F552
:1028D000004F354A354920684FF0000806D088423D
:1028E00001D0904236D1FEF7DDFB35E0884201D0C1
:1028F000904202D1FEF7D6FB01E0FEF7C3FB616810
:102900004A18A0FB070148EB0803FDF75FFC0146EE
:10291000B0FBF5F00201B1FBF5F06FF0180358437E
:1029200001EB800006EBC000B0FBF5F000F0F80012
:1029300002EB4002B1FBF5F0584301EB800006EBDF
:10294000C000B0FBF5F000F007002168104488607B
:10295000BDE8F081FEF796FB61688B0F8A00A0FB53
:102960000701FDF733FC0146B0FBF5F06FF01802EC
:10297000504301EB800006EB0010B0FBF5F000F0D7
:10298000F002B1FBF5F002EB0012B1FBF5F06FF0D5
:102990001803584301EB800006EB0010B0FBF5F084
:1029A00000F00F00D1E700000014014000100140CA
:1029B00090F83910212901D0022070478168B1F5C3
:1029C000805F016A0BD04A1C02620268097851607C
:1029D000C18C491E0904090CC1840ED017E0098876
:1029E0000268C1F30801516001690029016A02D03F
:1029F000491C0162ECE7891CFBE70168CA6822F008
:102A00008002CA600068C16841F04001C1600020D6
:102A100070472DE9F041984617460E460446069D3C
:102A20001DE0681C1BD02DB1FEF7F2F9A0EB0800E9
:102A3000A84214D92068C16821F4D071C16020680F
:102A4000416921F001014161202084F8390084F8B6
:102A50003A00002084F838000320BDE8F0812068A7
:102A6000006836EA000004D00020B842D9D0002027
:102A7000F3E70120F9E700000148FFF799B80000EB
:102A800010020020FEE700000FB4054B10B503A9AB
:102A9000044A029800F0EAF810BC5DF814FB00004C
:102AA0009D330008880000200907090E002804DB78
:102AB00000F1E02080F80014704700F00F0000F1F2
:102AC000E02080F8141D704702E008C8121F08C1FA
:102AD000002AFAD170477047002001E001C1121F9F
:102AE000002AFBD1704700002DE9FF5F82B0002172
:102AF000DDE90430020DDDF840B0034318D044F6A0
:102B00001050A2F2FF3242431514119801281FD031
:102B1000A5EB0B00401C5FEA000A4FF000064E4F89
:102B2000DFF83891B046504615D5CAF1000413E0DD
:102B3000119801244AA3012801D16FEA0B010298E0
:102B4000119AC0E90031C0E9024206B0BDE8F09F29
:102B5000CBF10000DFE704460021404A491842EB70
:102B60000450CDE9001012E0E00707D032463B46A2
:102B700040464946FDF714FC8046894632463B46AE
:102B800010461946FDF70CFC06460F466410002C53
:102B9000EAD1DDE90401DDE90023BAF1000F06DA2C
:102BA000FDF7FEFB42464B46FDF7FAFB05E0FDF75D
:102BB00069FC42464B46FDF765FC04460E46002282
:102BC000284BFDF717FD03D84FF0FF30014607E013
:102BD0000022254B20463146FDF73BFBFDF7C6FDA5
:102BE000102409E0002C0ADB0A220023FDF7EEFA8C
:102BF000039B30321A55641E50EA0102F2D1641C64
:102C0000039AC4F111031444119A012A03D001223A
:102C100008430DD10AE0084304D000204FF0110B07
:102C2000119072E7A3EB0B056D1E0DE05B4504DD13
:102C30004FF0000205F1010504E003DA4FF0000255
:102C4000A5F10105002AECD002981199C0E90231E2
:102C5000C0E9004579E70000000014400000F03FA3
:102C6000300000000000F0430000E03F2DE9FF4F7E
:102C700095B09B468946064600250FE2252877D168
:102C800000242746F84A0121059400E0044316F881
:102C9000013F203B01FA03F01042F7D130782A2897
:102CA00011D06FF02F033078A0F13002092A16D826
:102CB000059A44F0020402EB820203EB4202104444
:102CC000761C0590EFE759F8042B0592002A03DAE9
:102CD000504244F40054059044F00204761C3078CD
:102CE0002E2816D116F8010F44F004042A280DD01E
:102CF0006FF02F023078A0F13003092B09D807EBD1
:102D0000870302EB4303C718761CF3E759F8047BEB
:102D1000761C30786C280FD006DC4C2817D0682839
:102D20000DD06A2814D104E0742810D07A280FD16D
:102D30000DE044F400140AE044F4801401E044F48B
:102D400040147278824202D104F58014761C761CFD
:102D5000307866280BD013DC582877D009DC00289F
:102D600075D04528F6D04628F4D047281AD19DE1E1
:102D700018E0632835D0642879D0652812D195E110
:102D8000702873D008DC6728F1D069286FD06E28CE
:102D90000DD06F2806D1B5E073282CD0752875D0DA
:102DA000782874D05A46179990476D1C75E1C4F382
:102DB0000250022809D003280DD0D9F800100428A9
:102DC0000DD00D6009F1040967E1D9F80010EA1788
:102DD000C1E90052F6E7D9F800100D80F2E70D7056
:102DE000F0E719F8041B8DF8001000208DF80100A1
:102DF000EA46012003E059F804AB4FF0FF306107C9
:102E00004FF0000102D40DE008F101018846B942FB
:102E10000FDA8045F8DB1AF808100029F4D108E031
:102E200008F1010188468142FADB1AF808100029EE
:102E3000F6D105985B46A0EB080721463846179A5D
:102E400000F094FA284400EB080507E04DE029E182
:102E50000DE01AF8010B5A4617999047B8F101088E
:102E6000F7D25B4621463846179A13E142E00A2220
:102E70000092C4F302524FF0000A022A08D059F817
:102E800004CB032A4FEAEC710AD00DE029E02AE0D6
:102E900009F1070121F00702F2E802C1914609E0B9
:102EA0000FFA8CFC4FEAEC71042A03D14FFA8CFC28
:102EB0004FEAEC71002907DA0A460021DCF1000C28
:102EC00061EB02012D2202E0220504D52B228DF8B0
:102ED0000420012203E0E20701D02022F7E7904618
:102EE00059E00A2102E010220DE010214FF0000A03
:102EF00000910BE010224FF0000A44F00404082770
:102F0000009203E008224FF0000A0092C4F302523C
:102F1000022A05D059F804CB0021032A08D009E081
:102F200009F1070121F00702F2E802C1914605E02C
:102F30001FFA8CFC042A01D10CF0FF0C4FF00008A2
:102F4000220728D5702806D0009B83F0100353EA8F
:102F50000A0305D00EE040228DF80420012208E08B
:102F60005CEA010206D030228DF804208DF80500BD
:102F700002229046009B83F0080353EA0A030AD119
:102F80005CEA010201D1620705D530228DF80420E8
:102F90004FF001087F1E582804D034A003900EA8DB
:102FA00002900DE036A0F9E753466046009AFDF71F
:102FB0000DF984460398825C0298401E02900270CC
:102FC0005CEA0100F0D1029806A9081A00F1200A73
:102FD000600702D524F4803400E00127574502DD64
:102FE000A7EB0A0000E0002000EB0A010090059822
:102FF0004144401A0590E00306D45B462146179AE7
:10300000059800F0B3F90544002706E001A85A46E8
:10301000C05D179990476D1C7F1C4745F6DBE003A8
:103020000CD55B462146179A059800F09FF9054498
:1030300004E030205A46179990476D1C0099481EAD
:1030400000900029F5DC08E0029802995A460078C1
:10305000491C0291179990476D1CBAF10001AAF121
:10306000010AF1DC65E1000009280100303132334A
:1030700034353637383961626364656600000000B4
:10308000303132333435363738394142434445469E
:103090000000000000F058F90544761C3078002844
:1030A0007FF4ECAD19B02846BDE8F08F620700D47C
:1030B000062709F1070222F0070CFCE80223E1468B
:1030C00003F000485FEA080C02D00FF2702C0DE00C
:1030D0005FEA045C02D50FF2682C07E05FEAC47C6B
:1030E00002D00FF2602C01E0AFF2700C4FF0FF380D
:1030F00023F00043CDF850C065280CD006DC4528ED
:1031000009D046281DD047283DD13DE0662818D07B
:1031100067287ED138E00021112F01DB112000E06B
:10312000781CCDE9000106A90EA8FFF7DDFCDDE95A
:103130000F010E9A03910021009207F1010A0491F8
:103140004DE04FF000400097CDE9011006A90EA810
:10315000FFF7CAFCDDE90F0203920E9B11990022D2
:10316000DDF80CA00093049211B9791C00EB010A60
:10317000B7EB0A0004D4C0F1FF3007F1010A049054
:10318000AAEB0700019044E0012F00DA012700219B
:10319000112F01DD112000E03846CDE9000106A91C
:1031A0000EA8FFF7A1FCDDE90F010E9A03910021A3
:1031B00004910092BA4621070CD40399514500DAD4
:1031C0008A46BAF1010F05DD009AAAF10101515CAE
:1031D000302908D0B84202DA10F1040F06DA0121D2
:1031E000CDE9011015E0AAF10101E9E7002805DCAD
:1031F000049901440491AAEB000102E0411C5145ED
:1032000000DD8A460499401A401C01904FF00040AE
:103210000290200704D40198504501DBCDF80480CA
:1032200000208DF84F0002980DF14F07B0F1004FCC
:1032300025D02B200E9002984FF0020800280CDABF
:10324000404202902D200E9007E00A210298FDF7DF
:10325000E9F93031029007F8011DB8F10001A8F139
:103260000108F2DC02980028EFD1791E0E98087050
:10327000307800F0200040F0450007F8020D12A859
:10328000C01B00F107081498007800B1012000EB82
:103290000A01019801EBE07105984144401A401E73
:1032A0000590E00306D45B462146179A059800F086
:1032B0005DF805441498007818B15A46179990475C
:1032C0006D1CE00324D55B462146179A059800F053
:1032D0004DF805441CE00498002807DBDDE90301F4
:1032E000884203DD0098405C179901E0179930206F
:1032F0005A469047049805F10105401C0490019836
:10330000401E019004D12E205A46179990476D1CFB
:10331000BAF10001AAF1010ADDDC05E017F8010BA2
:103320005A46179990476D1CB8F10001A8F10108A1
:10333000F4DC5B462146179A0598ABE62D000000A9
:103340002B000000200000002DE9F041044600257C
:103350001E461746880404D405E039462020B047AD
:103360006D1C641EF9D52846BDE8F0812DE9F041B9
:10337000044600251E469046C80301D5302700E0CC
:103380002027880404D505E041463846B0476D1C27
:10339000641EF9D52846BDE8F081000038B5044622
:1033A0008DF800004FF47A73012269460248FEF757
:1033B000F8FC204638BD000010020020FDF736FD65
:1033C000FFF712F9FEF74CFDFEF7FAFDFEF75EFE81
:1033D000FEF792FEFEF7B8FEFEF724FEFEF7D4FDE0
:1033E0002248FEF72DF92248FEF72AF923489FEDDF
:1033F000210B9FED231B244C002280EC040B102199
:1034000080ED040B80ED061B2046FDF7FBFC251527
:10341000002229462046FDF7F5FC40F6B836304636
:10342000FDF708FC19A120A0FFF72EFB01221021B7
:103430002046FDF7E7FC012229462046FDF7E2FC85
:103440003046FDF7F7FB19A117A0FFF71DFBFDF7AD
:1034500047FA234C02E02064FEF796FE216CE068F8
:103460008142FBD021680029F8DDF4E750010020FB
:10347000D00000200000000000408F40B00000207D
:1034800000000000000024400000024053746172FC
:1034900074696E672C20506C656173652077616973
:1034A000742E2E2E0000000025730A005265616400
:1034B000792E0A20456E7669726F6E6D656E742086
:1034C000446574656374696F6E2069732061626F0F
:1034D000757420746F2053746172742E00000000A4
:1034E0000000002010B52DED048BB0EE408AF0EE08
:1034F000608A9FED0C9B51EC180B53EC192BFDF7D8
:1035000079F803D20120BDEC048B10BD53EC192BCC
:1035100051EC180BFDF756F801D10020F3E74FF0FE
:10352000FF30F0E700000000000000000000000095
:103530000000000001020304060708090000000063
:103540000102030464350008000000208C00000024
:10355000C82A0008F03500088C000020C4050000CF
:10356000D82A000800000000000000000000000051
:103570000000000002000000000000000000000049
:10358000000000000000000000000000000000003B
:10359000000000000000000000000000000000002B
:1035A00000000000000000001E0000001E000000DF
:1035B000000000000000000000004E40000000007D
:1035C00000000000000000000000000000000000FB
:1035D00000000000000000000000000001000000EA
:1035E00010000000000000000024F40000000000B3
:040000050800019559
:00000001FF
